{
  "_format": "hh-sol-artifact-1",
  "contractName": "YolksNFT",
  "sourceName": "contracts/YolksNFT.sol",
  "abi": [
    {
      "inputs": [],
      "stateMutability": "nonpayable",
      "type": "constructor"
    },
    {
      "anonymous": false,
      "inputs": [
        {
          "indexed": true,
          "internalType": "address",
          "name": "owner",
          "type": "address"
        },
        {
          "indexed": true,
          "internalType": "address",
          "name": "approved",
          "type": "address"
        },
        {
          "indexed": true,
          "internalType": "uint256",
          "name": "tokenId",
          "type": "uint256"
        }
      ],
      "name": "Approval",
      "type": "event"
    },
    {
      "anonymous": false,
      "inputs": [
        {
          "indexed": true,
          "internalType": "address",
          "name": "owner",
          "type": "address"
        },
        {
          "indexed": true,
          "internalType": "address",
          "name": "operator",
          "type": "address"
        },
        {
          "indexed": false,
          "internalType": "bool",
          "name": "approved",
          "type": "bool"
        }
      ],
      "name": "ApprovalForAll",
      "type": "event"
    },
    {
      "anonymous": false,
      "inputs": [
        {
          "indexed": false,
          "internalType": "uint256",
          "name": "maxNft",
          "type": "uint256"
        }
      ],
      "name": "MaxNFTQuotaChanged",
      "type": "event"
    },
    {
      "anonymous": false,
      "inputs": [
        {
          "indexed": false,
          "internalType": "uint256",
          "name": "nftNumber",
          "type": "uint256"
        },
        {
          "indexed": false,
          "internalType": "string",
          "name": "nftImageUri",
          "type": "string"
        }
      ],
      "name": "NFTUriSet",
      "type": "event"
    },
    {
      "anonymous": false,
      "inputs": [
        {
          "indexed": false,
          "internalType": "address",
          "name": "sender",
          "type": "address"
        },
        {
          "indexed": false,
          "internalType": "uint256",
          "name": "tokenId",
          "type": "uint256"
        }
      ],
      "name": "NewYolkNFTMinted",
      "type": "event"
    },
    {
      "anonymous": false,
      "inputs": [
        {
          "indexed": true,
          "internalType": "address",
          "name": "previousOwner",
          "type": "address"
        },
        {
          "indexed": true,
          "internalType": "address",
          "name": "newOwner",
          "type": "address"
        }
      ],
      "name": "OwnershipTransferred",
      "type": "event"
    },
    {
      "anonymous": false,
      "inputs": [
        {
          "indexed": true,
          "internalType": "address",
          "name": "from",
          "type": "address"
        },
        {
          "indexed": true,
          "internalType": "address",
          "name": "to",
          "type": "address"
        },
        {
          "indexed": true,
          "internalType": "uint256",
          "name": "tokenId",
          "type": "uint256"
        }
      ],
      "name": "Transfer",
      "type": "event"
    },
    {
      "inputs": [
        {
          "internalType": "address",
          "name": "to",
          "type": "address"
        },
        {
          "internalType": "uint256",
          "name": "tokenId",
          "type": "uint256"
        }
      ],
      "name": "approve",
      "outputs": [],
      "stateMutability": "nonpayable",
      "type": "function"
    },
    {
      "inputs": [
        {
          "internalType": "address",
          "name": "owner",
          "type": "address"
        }
      ],
      "name": "balanceOf",
      "outputs": [
        {
          "internalType": "uint256",
          "name": "",
          "type": "uint256"
        }
      ],
      "stateMutability": "view",
      "type": "function"
    },
    {
      "inputs": [
        {
          "internalType": "uint256",
          "name": "tokenId",
          "type": "uint256"
        }
      ],
      "name": "getApproved",
      "outputs": [
        {
          "internalType": "address",
          "name": "",
          "type": "address"
        }
      ],
      "stateMutability": "view",
      "type": "function"
    },
    {
      "inputs": [],
      "name": "getMaxNft",
      "outputs": [
        {
          "internalType": "uint256",
          "name": "",
          "type": "uint256"
        }
      ],
      "stateMutability": "view",
      "type": "function"
    },
    {
      "inputs": [],
      "name": "getTotalNFTsMintedSoFar",
      "outputs": [
        {
          "internalType": "uint256",
          "name": "",
          "type": "uint256"
        }
      ],
      "stateMutability": "view",
      "type": "function"
    },
    {
      "inputs": [
        {
          "internalType": "address",
          "name": "owner",
          "type": "address"
        },
        {
          "internalType": "address",
          "name": "operator",
          "type": "address"
        }
      ],
      "name": "isApprovedForAll",
      "outputs": [
        {
          "internalType": "bool",
          "name": "",
          "type": "bool"
        }
      ],
      "stateMutability": "view",
      "type": "function"
    },
    {
      "inputs": [
        {
          "internalType": "uint256",
          "name": "nftNumber",
          "type": "uint256"
        }
      ],
      "name": "isNftMappingAlreadyUsed",
      "outputs": [
        {
          "internalType": "bool",
          "name": "",
          "type": "bool"
        }
      ],
      "stateMutability": "view",
      "type": "function"
    },
    {
      "inputs": [
        {
          "internalType": "uint256",
          "name": "nftNumber",
          "type": "uint256"
        }
      ],
      "name": "makeAYolkNFT",
      "outputs": [],
      "stateMutability": "nonpayable",
      "type": "function"
    },
    {
      "inputs": [],
      "name": "name",
      "outputs": [
        {
          "internalType": "string",
          "name": "",
          "type": "string"
        }
      ],
      "stateMutability": "view",
      "type": "function"
    },
    {
      "inputs": [],
      "name": "owner",
      "outputs": [
        {
          "internalType": "address",
          "name": "",
          "type": "address"
        }
      ],
      "stateMutability": "view",
      "type": "function"
    },
    {
      "inputs": [
        {
          "internalType": "uint256",
          "name": "tokenId",
          "type": "uint256"
        }
      ],
      "name": "ownerOf",
      "outputs": [
        {
          "internalType": "address",
          "name": "",
          "type": "address"
        }
      ],
      "stateMutability": "view",
      "type": "function"
    },
    {
      "inputs": [],
      "name": "renounceOwnership",
      "outputs": [],
      "stateMutability": "nonpayable",
      "type": "function"
    },
    {
      "inputs": [
        {
          "internalType": "address",
          "name": "from",
          "type": "address"
        },
        {
          "internalType": "address",
          "name": "to",
          "type": "address"
        },
        {
          "internalType": "uint256",
          "name": "tokenId",
          "type": "uint256"
        }
      ],
      "name": "safeTransferFrom",
      "outputs": [],
      "stateMutability": "nonpayable",
      "type": "function"
    },
    {
      "inputs": [
        {
          "internalType": "address",
          "name": "from",
          "type": "address"
        },
        {
          "internalType": "address",
          "name": "to",
          "type": "address"
        },
        {
          "internalType": "uint256",
          "name": "tokenId",
          "type": "uint256"
        },
        {
          "internalType": "bytes",
          "name": "_data",
          "type": "bytes"
        }
      ],
      "name": "safeTransferFrom",
      "outputs": [],
      "stateMutability": "nonpayable",
      "type": "function"
    },
    {
      "inputs": [
        {
          "internalType": "address",
          "name": "operator",
          "type": "address"
        },
        {
          "internalType": "bool",
          "name": "approved",
          "type": "bool"
        }
      ],
      "name": "setApprovalForAll",
      "outputs": [],
      "stateMutability": "nonpayable",
      "type": "function"
    },
    {
      "inputs": [
        {
          "internalType": "uint256",
          "name": "_maxNft",
          "type": "uint256"
        }
      ],
      "name": "setMaxNft",
      "outputs": [],
      "stateMutability": "nonpayable",
      "type": "function"
    },
    {
      "inputs": [
        {
          "internalType": "uint256",
          "name": "nftNumber",
          "type": "uint256"
        },
        {
          "internalType": "string",
          "name": "_nftImageUri",
          "type": "string"
        }
      ],
      "name": "setNftImageUri",
      "outputs": [],
      "stateMutability": "nonpayable",
      "type": "function"
    },
    {
      "inputs": [
        {
          "internalType": "bytes4",
          "name": "interfaceId",
          "type": "bytes4"
        }
      ],
      "name": "supportsInterface",
      "outputs": [
        {
          "internalType": "bool",
          "name": "",
          "type": "bool"
        }
      ],
      "stateMutability": "view",
      "type": "function"
    },
    {
      "inputs": [],
      "name": "symbol",
      "outputs": [
        {
          "internalType": "string",
          "name": "",
          "type": "string"
        }
      ],
      "stateMutability": "view",
      "type": "function"
    },
    {
      "inputs": [
        {
          "internalType": "uint256",
          "name": "tokenId",
          "type": "uint256"
        }
      ],
      "name": "tokenURI",
      "outputs": [
        {
          "internalType": "string",
          "name": "",
          "type": "string"
        }
      ],
      "stateMutability": "view",
      "type": "function"
    },
    {
      "inputs": [
        {
          "internalType": "address",
          "name": "from",
          "type": "address"
        },
        {
          "internalType": "address",
          "name": "to",
          "type": "address"
        },
        {
          "internalType": "uint256",
          "name": "tokenId",
          "type": "uint256"
        }
      ],
      "name": "transferFrom",
      "outputs": [],
      "stateMutability": "nonpayable",
      "type": "function"
    },
    {
      "inputs": [
        {
          "internalType": "address",
          "name": "newOwner",
          "type": "address"
        }
      ],
      "name": "transferOwnership",
      "outputs": [],
      "stateMutability": "nonpayable",
      "type": "function"
    }
  ],
  "bytecode": "0x60806040523480156200001157600080fd5b506040518060400160405280600881526020017f596f6c6b734e46540000000000000000000000000000000000000000000000008152506040518060400160405280600581526020017f594f4c4b53000000000000000000000000000000000000000000000000000000815250816000908051906020019062000096929190620001ad565b508060019080519060200190620000af929190620001ad565b505050620000d2620000c6620000df60201b60201c565b620000e760201b60201c565b600a8081905550620002c2565b600033905090565b6000600760009054906101000a900473ffffffffffffffffffffffffffffffffffffffff16905081600760006101000a81548173ffffffffffffffffffffffffffffffffffffffff021916908373ffffffffffffffffffffffffffffffffffffffff1602179055508173ffffffffffffffffffffffffffffffffffffffff168173ffffffffffffffffffffffffffffffffffffffff167f8be0079c531659141344cd1fd0a4f28419497f9722a3daafe3b4186f6b6457e060405160405180910390a35050565b828054620001bb906200025d565b90600052602060002090601f016020900481019282620001df57600085556200022b565b82601f10620001fa57805160ff19168380011785556200022b565b828001600101855582156200022b579182015b828111156200022a5782518255916020019190600101906200020d565b5b5090506200023a91906200023e565b5090565b5b80821115620002595760008160009055506001016200023f565b5090565b600060028204905060018216806200027657607f821691505b602082108114156200028d576200028c62000293565b5b50919050565b7f4e487b7100000000000000000000000000000000000000000000000000000000600052602260045260246000fd5b6135a780620002d26000396000f3fe608060405234801561001057600080fd5b50600436106101425760003560e01c8063715018a6116100b8578063afc1b4a71161007c578063afc1b4a71461034f578063b88d4fde1461037f578063c87b56dd1461039b578063d926940a146103cb578063e985e9c5146103e7578063f2fde38b1461041757610142565b8063715018a6146102d15780638da5cb5b146102db57806395d89b41146102f95780639992e88b14610317578063a22cb4651461033357610142565b806323b872dd1161010a57806323b872dd146101ff578063264494de1461021b57806333ff7fc01461023757806342842e0e146102555780636352211e1461027157806370a08231146102a157610142565b806301ffc9a714610147578063060475901461017757806306fdde0314610195578063081812fc146101b3578063095ea7b3146101e3575b600080fd5b610161600480360381019061015c919061245f565b610433565b60405161016e9190612dec565b60405180910390f35b61017f610515565b60405161018c91906130e7565b60405180910390f35b61019d610526565b6040516101aa9190612e07565b60405180910390f35b6101cd60048036038101906101c891906124b1565b6105b8565b6040516101da9190612d5c565b60405180910390f35b6101fd60048036038101906101f89190612423565b61063d565b005b6102196004803603810190610214919061231d565b610755565b005b610235600480360381019061023091906124b1565b6107b5565b005b61023f610872565b60405161024c91906130e7565b60405180910390f35b61026f600480360381019061026a919061231d565b61087c565b005b61028b600480360381019061028691906124b1565b61089c565b6040516102989190612d5c565b60405180910390f35b6102bb60048036038101906102b691906122b8565b61094e565b6040516102c891906130e7565b60405180910390f35b6102d9610a06565b005b6102e3610a8e565b6040516102f09190612d5c565b60405180910390f35b610301610ab8565b60405161030e9190612e07565b60405180910390f35b610331600480360381019061032c91906124da565b610b4a565b005b61034d600480360381019061034891906123e7565b610c2e565b005b610369600480360381019061036491906124b1565b610c44565b6040516103769190612dec565b60405180910390f35b6103996004803603810190610394919061236c565b610c71565b005b6103b560048036038101906103b091906124b1565b610cd3565b6040516103c29190612e07565b60405180910390f35b6103e560048036038101906103e091906124b1565b610e25565b005b61040160048036038101906103fc91906122e1565b61102f565b60405161040e9190612dec565b60405180910390f35b610431600480360381019061042c91906122b8565b6110c3565b005b60007f80ac58cd000000000000000000000000000000000000000000000000000000007bffffffffffffffffffffffffffffffffffffffffffffffffffffffff1916827bffffffffffffffffffffffffffffffffffffffffffffffffffffffff191614806104fe57507f5b5e139f000000000000000000000000000000000000000000000000000000007bffffffffffffffffffffffffffffffffffffffffffffffffffffffff1916827bffffffffffffffffffffffffffffffffffffffffffffffffffffffff1916145b8061050e575061050d826111bb565b5b9050919050565b60006105216008611225565b905090565b60606000805461053590613377565b80601f016020809104026020016040519081016040528092919081815260200182805461056190613377565b80156105ae5780601f10610583576101008083540402835291602001916105ae565b820191906000526020600020905b81548152906001019060200180831161059157829003601f168201915b5050505050905090565b60006105c382611233565b610602576040517f08c379a00000000000000000000000000000000000000000000000000000000081526004016105f990613007565b60405180910390fd5b6004600083815260200190815260200160002060009054906101000a900473ffffffffffffffffffffffffffffffffffffffff169050919050565b60006106488261089c565b90508073ffffffffffffffffffffffffffffffffffffffff168373ffffffffffffffffffffffffffffffffffffffff1614156106b9576040517f08c379a00000000000000000000000000000000000000000000000000000000081526004016106b090613087565b60405180910390fd5b8073ffffffffffffffffffffffffffffffffffffffff166106d861129f565b73ffffffffffffffffffffffffffffffffffffffff16148061070757506107068161070161129f565b61102f565b5b610746576040517f08c379a000000000000000000000000000000000000000000000000000000000815260040161073d90612f47565b60405180910390fd5b61075083836112a7565b505050565b61076661076061129f565b82611360565b6107a5576040517f08c379a000000000000000000000000000000000000000000000000000000000815260040161079c906130a7565b60405180910390fd5b6107b083838361143e565b505050565b6107bd61129f565b73ffffffffffffffffffffffffffffffffffffffff166107db610a8e565b73ffffffffffffffffffffffffffffffffffffffff1614610831576040517f08c379a000000000000000000000000000000000000000000000000000000000815260040161082890613027565b60405180910390fd5b80600a819055507f35633cf06e407068a37c59ce2ea2e062c14e180c770d8c9399eb40f5f9347d138160405161086791906130e7565b60405180910390a150565b6000600a54905090565b61089783838360405180602001604052806000815250610c71565b505050565b6000806002600084815260200190815260200160002060009054906101000a900473ffffffffffffffffffffffffffffffffffffffff169050600073ffffffffffffffffffffffffffffffffffffffff168173ffffffffffffffffffffffffffffffffffffffff161415610945576040517f08c379a000000000000000000000000000000000000000000000000000000000815260040161093c90612f87565b60405180910390fd5b80915050919050565b60008073ffffffffffffffffffffffffffffffffffffffff168273ffffffffffffffffffffffffffffffffffffffff1614156109bf576040517f08c379a00000000000000000000000000000000000000000000000000000000081526004016109b690612f67565b60405180910390fd5b600360008373ffffffffffffffffffffffffffffffffffffffff1673ffffffffffffffffffffffffffffffffffffffff168152602001908152602001600020549050919050565b610a0e61129f565b73ffffffffffffffffffffffffffffffffffffffff16610a2c610a8e565b73ffffffffffffffffffffffffffffffffffffffff1614610a82576040517f08c379a0000000000000000000000000000000000000000000000000000000008152600401610a7990613027565b60405180910390fd5b610a8c600061169a565b565b6000600760009054906101000a900473ffffffffffffffffffffffffffffffffffffffff16905090565b606060018054610ac790613377565b80601f0160208091040260200160405190810160405280929190818152602001828054610af390613377565b8015610b405780601f10610b1557610100808354040283529160200191610b40565b820191906000526020600020905b815481529060010190602001808311610b2357829003601f168201915b5050505050905090565b610b5261129f565b73ffffffffffffffffffffffffffffffffffffffff16610b70610a8e565b73ffffffffffffffffffffffffffffffffffffffff1614610bc6576040517f08c379a0000000000000000000000000000000000000000000000000000000008152600401610bbd90613027565b60405180910390fd5b80600960008481526020019081526020016000206001019080519060200190610bf09291906120dc565b507fbd2254b36246bfe975ca2cc20d8f97fb2ba34fc5cb4616c2ce7b10f3dc014aaf8282604051610c22929190613102565b60405180910390a15050565b610c40610c3961129f565b8383611760565b5050565b60006009600083815260200190815260200160002060000160009054906101000a900460ff169050919050565b610c82610c7c61129f565b83611360565b610cc1576040517f08c379a0000000000000000000000000000000000000000000000000000000008152600401610cb8906130a7565b60405180910390fd5b610ccd848484846118cd565b50505050565b6060610cde82611233565b610d1d576040517f08c379a0000000000000000000000000000000000000000000000000000000008152600401610d1490612fe7565b60405180910390fd5b6000600660008481526020019081526020016000208054610d3d90613377565b80601f0160208091040260200160405190810160405280929190818152602001828054610d6990613377565b8015610db65780601f10610d8b57610100808354040283529160200191610db6565b820191906000526020600020905b815481529060010190602001808311610d9957829003601f168201915b505050505090506000610dc7611929565b9050600081511415610ddd578192505050610e20565b600082511115610e12578082604051602001610dfa929190612d38565b60405160208183030381529060405292505050610e20565b610e1b84611940565b925050505b919050565b600a54610e326008611225565b10610e72576040517f08c379a0000000000000000000000000000000000000000000000000000000008152600401610e69906130c7565b60405180910390fd5b6009600082815260200190815260200160002060000160009054906101000a900460ff1615610ed6576040517f08c379a0000000000000000000000000000000000000000000000000000000008152600401610ecd90612e67565b60405180910390fd5b6000610ee26008611225565b905060016009600084815260200190815260200160002060000160006101000a81548160ff021916908315150217905550610f1d33826119e7565b610fc581600960008581526020019081526020016000206001018054610f4290613377565b80601f0160208091040260200160405190810160405280929190818152602001828054610f6e90613377565b8015610fbb5780601f10610f9057610100808354040283529160200191610fbb565b820191906000526020600020905b815481529060010190602001808311610f9e57829003601f168201915b5050505050611a05565b610fcf6008611a79565b610ff260405180606001604052806025815260200161354d602591398233611a8f565b7f482901749e288d6eda499e45151af3f2b1a31cf2cbf70551cd12883bb0b7a58c3382604051611023929190612dc3565b60405180910390a15050565b6000600560008473ffffffffffffffffffffffffffffffffffffffff1673ffffffffffffffffffffffffffffffffffffffff16815260200190815260200160002060008373ffffffffffffffffffffffffffffffffffffffff1673ffffffffffffffffffffffffffffffffffffffff16815260200190815260200160002060009054906101000a900460ff16905092915050565b6110cb61129f565b73ffffffffffffffffffffffffffffffffffffffff166110e9610a8e565b73ffffffffffffffffffffffffffffffffffffffff161461113f576040517f08c379a000000000000000000000000000000000000000000000000000000000815260040161113690613027565b60405180910390fd5b600073ffffffffffffffffffffffffffffffffffffffff168173ffffffffffffffffffffffffffffffffffffffff1614156111af576040517f08c379a00000000000000000000000000000000000000000000000000000000081526004016111a690612ea7565b60405180910390fd5b6111b88161169a565b50565b60007f01ffc9a7000000000000000000000000000000000000000000000000000000007bffffffffffffffffffffffffffffffffffffffffffffffffffffffff1916827bffffffffffffffffffffffffffffffffffffffffffffffffffffffff1916149050919050565b600081600001549050919050565b60008073ffffffffffffffffffffffffffffffffffffffff166002600084815260200190815260200160002060009054906101000a900473ffffffffffffffffffffffffffffffffffffffff1673ffffffffffffffffffffffffffffffffffffffff1614159050919050565b600033905090565b816004600083815260200190815260200160002060006101000a81548173ffffffffffffffffffffffffffffffffffffffff021916908373ffffffffffffffffffffffffffffffffffffffff160217905550808273ffffffffffffffffffffffffffffffffffffffff1661131a8361089c565b73ffffffffffffffffffffffffffffffffffffffff167f8c5be1e5ebec7d5bd14f71427d1e84f3dd0314c0f7b2291e5b200ac8c7c3b92560405160405180910390a45050565b600061136b82611233565b6113aa576040517f08c379a00000000000000000000000000000000000000000000000000000000081526004016113a190612f27565b60405180910390fd5b60006113b58361089c565b90508073ffffffffffffffffffffffffffffffffffffffff168473ffffffffffffffffffffffffffffffffffffffff16148061142457508373ffffffffffffffffffffffffffffffffffffffff1661140c846105b8565b73ffffffffffffffffffffffffffffffffffffffff16145b806114355750611434818561102f565b5b91505092915050565b8273ffffffffffffffffffffffffffffffffffffffff1661145e8261089c565b73ffffffffffffffffffffffffffffffffffffffff16146114b4576040517f08c379a00000000000000000000000000000000000000000000000000000000081526004016114ab90613047565b60405180910390fd5b600073ffffffffffffffffffffffffffffffffffffffff168273ffffffffffffffffffffffffffffffffffffffff161415611524576040517f08c379a000000000000000000000000000000000000000000000000000000000815260040161151b90612ee7565b60405180910390fd5b61152f838383611b2e565b61153a6000826112a7565b6001600360008573ffffffffffffffffffffffffffffffffffffffff1673ffffffffffffffffffffffffffffffffffffffff168152602001908152602001600020600082825461158a919061328d565b925050819055506001600360008473ffffffffffffffffffffffffffffffffffffffff1673ffffffffffffffffffffffffffffffffffffffff16815260200190815260200160002060008282546115e19190613206565b92505081905550816002600083815260200190815260200160002060006101000a81548173ffffffffffffffffffffffffffffffffffffffff021916908373ffffffffffffffffffffffffffffffffffffffff160217905550808273ffffffffffffffffffffffffffffffffffffffff168473ffffffffffffffffffffffffffffffffffffffff167fddf252ad1be2c89b69c2b068fc378daa952ba7f163c4a11628f55a4df523b3ef60405160405180910390a4505050565b6000600760009054906101000a900473ffffffffffffffffffffffffffffffffffffffff16905081600760006101000a81548173ffffffffffffffffffffffffffffffffffffffff021916908373ffffffffffffffffffffffffffffffffffffffff1602179055508173ffffffffffffffffffffffffffffffffffffffff168173ffffffffffffffffffffffffffffffffffffffff167f8be0079c531659141344cd1fd0a4f28419497f9722a3daafe3b4186f6b6457e060405160405180910390a35050565b8173ffffffffffffffffffffffffffffffffffffffff168373ffffffffffffffffffffffffffffffffffffffff1614156117cf576040517f08c379a00000000000000000000000000000000000000000000000000000000081526004016117c690612f07565b60405180910390fd5b80600560008573ffffffffffffffffffffffffffffffffffffffff1673ffffffffffffffffffffffffffffffffffffffff16815260200190815260200160002060008473ffffffffffffffffffffffffffffffffffffffff1673ffffffffffffffffffffffffffffffffffffffff16815260200190815260200160002060006101000a81548160ff0219169083151502179055508173ffffffffffffffffffffffffffffffffffffffff168373ffffffffffffffffffffffffffffffffffffffff167f17307eab39ab6107e8899845ad3d59bd9653f200f220920489ca2b5937696c31836040516118c09190612dec565b60405180910390a3505050565b6118d884848461143e565b6118e484848484611b33565b611923576040517f08c379a000000000000000000000000000000000000000000000000000000000815260040161191a90612e87565b60405180910390fd5b50505050565b606060405180602001604052806000815250905090565b606061194b82611233565b61198a576040517f08c379a000000000000000000000000000000000000000000000000000000000815260040161198190613067565b60405180910390fd5b6000611994611929565b905060008151116119b457604051806020016040528060008152506119df565b806119be84611cca565b6040516020016119cf929190612d38565b6040516020818303038152906040525b915050919050565b611a01828260405180602001604052806000815250611e77565b5050565b611a0e82611233565b611a4d576040517f08c379a0000000000000000000000000000000000000000000000000000000008152600401611a4490612fa7565b60405180910390fd5b80600660008481526020019081526020016000209080519060200190611a749291906120dc565b505050565b6001816000016000828254019250508190555050565b611b29838383604051602401611aa793929190612e29565b6040516020818303038152906040527fe3849f79000000000000000000000000000000000000000000000000000000007bffffffffffffffffffffffffffffffffffffffffffffffffffffffff19166020820180517bffffffffffffffffffffffffffffffffffffffffffffffffffffffff8381831617835250505050611ed2565b505050565b505050565b6000611b548473ffffffffffffffffffffffffffffffffffffffff16611efb565b15611cbd578373ffffffffffffffffffffffffffffffffffffffff1663150b7a02611b7d61129f565b8786866040518563ffffffff1660e01b8152600401611b9f9493929190612d77565b602060405180830381600087803b158015611bb957600080fd5b505af1925050508015611bea57506040513d601f19601f82011682018060405250810190611be79190612488565b60015b611c6d573d8060008114611c1a576040519150601f19603f3d011682016040523d82523d6000602084013e611c1f565b606091505b50600081511415611c65576040517f08c379a0000000000000000000000000000000000000000000000000000000008152600401611c5c90612e87565b60405180910390fd5b805181602001fd5b63150b7a0260e01b7bffffffffffffffffffffffffffffffffffffffffffffffffffffffff1916817bffffffffffffffffffffffffffffffffffffffffffffffffffffffff191614915050611cc2565b600190505b949350505050565b60606000821415611d12576040518060400160405280600181526020017f30000000000000000000000000000000000000000000000000000000000000008152509050611e72565b600082905060005b60008214611d44578080611d2d906133a9565b915050600a82611d3d919061325c565b9150611d1a565b60008167ffffffffffffffff811115611d86577f4e487b7100000000000000000000000000000000000000000000000000000000600052604160045260246000fd5b6040519080825280601f01601f191660200182016040528015611db85781602001600182028036833780820191505090505b5090505b60008514611e6b57600182611dd1919061328d565b9150600a85611de091906133f2565b6030611dec9190613206565b60f81b818381518110611e28577f4e487b7100000000000000000000000000000000000000000000000000000000600052603260045260246000fd5b60200101907effffffffffffffffffffffffffffffffffffffffffffffffffffffffffffff1916908160001a905350600a85611e64919061325c565b9450611dbc565b8093505050505b919050565b611e818383611f0e565b611e8e6000848484611b33565b611ecd576040517f08c379a0000000000000000000000000000000000000000000000000000000008152600401611ec490612e87565b60405180910390fd5b505050565b60008151905060006a636f6e736f6c652e6c6f679050602083016000808483855afa5050505050565b600080823b905060008111915050919050565b600073ffffffffffffffffffffffffffffffffffffffff168273ffffffffffffffffffffffffffffffffffffffff161415611f7e576040517f08c379a0000000000000000000000000000000000000000000000000000000008152600401611f7590612fc7565b60405180910390fd5b611f8781611233565b15611fc7576040517f08c379a0000000000000000000000000000000000000000000000000000000008152600401611fbe90612ec7565b60405180910390fd5b611fd360008383611b2e565b6001600360008473ffffffffffffffffffffffffffffffffffffffff1673ffffffffffffffffffffffffffffffffffffffff16815260200190815260200160002060008282546120239190613206565b92505081905550816002600083815260200190815260200160002060006101000a81548173ffffffffffffffffffffffffffffffffffffffff021916908373ffffffffffffffffffffffffffffffffffffffff160217905550808273ffffffffffffffffffffffffffffffffffffffff16600073ffffffffffffffffffffffffffffffffffffffff167fddf252ad1be2c89b69c2b068fc378daa952ba7f163c4a11628f55a4df523b3ef60405160405180910390a45050565b8280546120e890613377565b90600052602060002090601f01602090048101928261210a5760008555612151565b82601f1061212357805160ff1916838001178555612151565b82800160010185558215612151579182015b82811115612150578251825591602001919060010190612135565b5b50905061215e9190612162565b5090565b5b8082111561217b576000816000905550600101612163565b5090565b600061219261218d84613163565b613132565b9050828152602081018484840111156121aa57600080fd5b6121b5848285613335565b509392505050565b60006121d06121cb84613193565b613132565b9050828152602081018484840111156121e857600080fd5b6121f3848285613335565b509392505050565b60008135905061220a816134f0565b92915050565b60008135905061221f81613507565b92915050565b6000813590506122348161351e565b92915050565b6000815190506122498161351e565b92915050565b600082601f83011261226057600080fd5b813561227084826020860161217f565b91505092915050565b600082601f83011261228a57600080fd5b813561229a8482602086016121bd565b91505092915050565b6000813590506122b281613535565b92915050565b6000602082840312156122ca57600080fd5b60006122d8848285016121fb565b91505092915050565b600080604083850312156122f457600080fd5b6000612302858286016121fb565b9250506020612313858286016121fb565b9150509250929050565b60008060006060848603121561233257600080fd5b6000612340868287016121fb565b9350506020612351868287016121fb565b9250506040612362868287016122a3565b9150509250925092565b6000806000806080858703121561238257600080fd5b6000612390878288016121fb565b94505060206123a1878288016121fb565b93505060406123b2878288016122a3565b925050606085013567ffffffffffffffff8111156123cf57600080fd5b6123db8782880161224f565b91505092959194509250565b600080604083850312156123fa57600080fd5b6000612408858286016121fb565b925050602061241985828601612210565b9150509250929050565b6000806040838503121561243657600080fd5b6000612444858286016121fb565b9250506020612455858286016122a3565b9150509250929050565b60006020828403121561247157600080fd5b600061247f84828501612225565b91505092915050565b60006020828403121561249a57600080fd5b60006124a88482850161223a565b91505092915050565b6000602082840312156124c357600080fd5b60006124d1848285016122a3565b91505092915050565b600080604083850312156124ed57600080fd5b60006124fb858286016122a3565b925050602083013567ffffffffffffffff81111561251857600080fd5b61252485828601612279565b9150509250929050565b612537816132c1565b82525050565b612546816132d3565b82525050565b6000612557826131c3565b61256181856131d9565b9350612571818560208601613344565b61257a816134df565b840191505092915050565b6000612590826131ce565b61259a81856131ea565b93506125aa818560208601613344565b6125b3816134df565b840191505092915050565b60006125c9826131ce565b6125d381856131fb565b93506125e3818560208601613344565b80840191505092915050565b60006125fc6029836131ea565b91507f4e465420776974682074686174206e66744e756d62657220697320616c72656160008301527f6479206d696e74656400000000000000000000000000000000000000000000006020830152604082019050919050565b60006126626032836131ea565b91507f4552433732313a207472616e7366657220746f206e6f6e20455243373231526560008301527f63656976657220696d706c656d656e74657200000000000000000000000000006020830152604082019050919050565b60006126c86026836131ea565b91507f4f776e61626c653a206e6577206f776e657220697320746865207a65726f206160008301527f64647265737300000000000000000000000000000000000000000000000000006020830152604082019050919050565b600061272e601c836131ea565b91507f4552433732313a20746f6b656e20616c7265616479206d696e746564000000006000830152602082019050919050565b600061276e6024836131ea565b91507f4552433732313a207472616e7366657220746f20746865207a65726f2061646460008301527f72657373000000000000000000000000000000000000000000000000000000006020830152604082019050919050565b60006127d46019836131ea565b91507f4552433732313a20617070726f766520746f2063616c6c6572000000000000006000830152602082019050919050565b6000612814602c836131ea565b91507f4552433732313a206f70657261746f7220717565727920666f72206e6f6e657860008301527f697374656e7420746f6b656e00000000000000000000000000000000000000006020830152604082019050919050565b600061287a6038836131ea565b91507f4552433732313a20617070726f76652063616c6c6572206973206e6f74206f7760008301527f6e6572206e6f7220617070726f76656420666f7220616c6c00000000000000006020830152604082019050919050565b60006128e0602a836131ea565b91507f4552433732313a2062616c616e636520717565727920666f7220746865207a6560008301527f726f2061646472657373000000000000000000000000000000000000000000006020830152604082019050919050565b60006129466029836131ea565b91507f4552433732313a206f776e657220717565727920666f72206e6f6e657869737460008301527f656e7420746f6b656e00000000000000000000000000000000000000000000006020830152604082019050919050565b60006129ac602e836131ea565b91507f45524337323155524953746f726167653a2055524920736574206f66206e6f6e60008301527f6578697374656e7420746f6b656e0000000000000000000000000000000000006020830152604082019050919050565b6000612a126020836131ea565b91507f4552433732313a206d696e7420746f20746865207a65726f20616464726573736000830152602082019050919050565b6000612a526031836131ea565b91507f45524337323155524953746f726167653a2055524920717565727920666f722060008301527f6e6f6e6578697374656e7420746f6b656e0000000000000000000000000000006020830152604082019050919050565b6000612ab8602c836131ea565b91507f4552433732313a20617070726f76656420717565727920666f72206e6f6e657860008301527f697374656e7420746f6b656e00000000000000000000000000000000000000006020830152604082019050919050565b6000612b1e6020836131ea565b91507f4f776e61626c653a2063616c6c6572206973206e6f7420746865206f776e65726000830152602082019050919050565b6000612b5e6029836131ea565b91507f4552433732313a207472616e73666572206f6620746f6b656e2074686174206960008301527f73206e6f74206f776e00000000000000000000000000000000000000000000006020830152604082019050919050565b6000612bc4602f836131ea565b91507f4552433732314d657461646174613a2055524920717565727920666f72206e6f60008301527f6e6578697374656e7420746f6b656e00000000000000000000000000000000006020830152604082019050919050565b6000612c2a6021836131ea565b91507f4552433732313a20617070726f76616c20746f2063757272656e74206f776e6560008301527f72000000000000000000000000000000000000000000000000000000000000006020830152604082019050919050565b6000612c906031836131ea565b91507f4552433732313a207472616e736665722063616c6c6572206973206e6f74206f60008301527f776e6572206e6f7220617070726f7665640000000000000000000000000000006020830152604082019050919050565b6000612cf6601e836131ea565b91507f416c72656164792072656163686564206d6178204e46542071756f74612100006000830152602082019050919050565b612d328161332b565b82525050565b6000612d4482856125be565b9150612d5082846125be565b91508190509392505050565b6000602082019050612d71600083018461252e565b92915050565b6000608082019050612d8c600083018761252e565b612d99602083018661252e565b612da66040830185612d29565b8181036060830152612db8818461254c565b905095945050505050565b6000604082019050612dd8600083018561252e565b612de56020830184612d29565b9392505050565b6000602082019050612e01600083018461253d565b92915050565b60006020820190508181036000830152612e218184612585565b905092915050565b60006060820190508181036000830152612e438186612585565b9050612e526020830185612d29565b612e5f604083018461252e565b949350505050565b60006020820190508181036000830152612e80816125ef565b9050919050565b60006020820190508181036000830152612ea081612655565b9050919050565b60006020820190508181036000830152612ec0816126bb565b9050919050565b60006020820190508181036000830152612ee081612721565b9050919050565b60006020820190508181036000830152612f0081612761565b9050919050565b60006020820190508181036000830152612f20816127c7565b9050919050565b60006020820190508181036000830152612f4081612807565b9050919050565b60006020820190508181036000830152612f608161286d565b9050919050565b60006020820190508181036000830152612f80816128d3565b9050919050565b60006020820190508181036000830152612fa081612939565b9050919050565b60006020820190508181036000830152612fc08161299f565b9050919050565b60006020820190508181036000830152612fe081612a05565b9050919050565b6000602082019050818103600083015261300081612a45565b9050919050565b6000602082019050818103600083015261302081612aab565b9050919050565b6000602082019050818103600083015261304081612b11565b9050919050565b6000602082019050818103600083015261306081612b51565b9050919050565b6000602082019050818103600083015261308081612bb7565b9050919050565b600060208201905081810360008301526130a081612c1d565b9050919050565b600060208201905081810360008301526130c081612c83565b9050919050565b600060208201905081810360008301526130e081612ce9565b9050919050565b60006020820190506130fc6000830184612d29565b92915050565b60006040820190506131176000830185612d29565b81810360208301526131298184612585565b90509392505050565b6000604051905081810181811067ffffffffffffffff82111715613159576131586134b0565b5b8060405250919050565b600067ffffffffffffffff82111561317e5761317d6134b0565b5b601f19601f8301169050602081019050919050565b600067ffffffffffffffff8211156131ae576131ad6134b0565b5b601f19601f8301169050602081019050919050565b600081519050919050565b600081519050919050565b600082825260208201905092915050565b600082825260208201905092915050565b600081905092915050565b60006132118261332b565b915061321c8361332b565b9250827fffffffffffffffffffffffffffffffffffffffffffffffffffffffffffffffff0382111561325157613250613423565b5b828201905092915050565b60006132678261332b565b91506132728361332b565b92508261328257613281613452565b5b828204905092915050565b60006132988261332b565b91506132a38361332b565b9250828210156132b6576132b5613423565b5b828203905092915050565b60006132cc8261330b565b9050919050565b60008115159050919050565b60007fffffffff0000000000000000000000000000000000000000000000000000000082169050919050565b600073ffffffffffffffffffffffffffffffffffffffff82169050919050565b6000819050919050565b82818337600083830152505050565b60005b83811015613362578082015181840152602081019050613347565b83811115613371576000848401525b50505050565b6000600282049050600182168061338f57607f821691505b602082108114156133a3576133a2613481565b5b50919050565b60006133b48261332b565b91507fffffffffffffffffffffffffffffffffffffffffffffffffffffffffffffffff8214156133e7576133e6613423565b5b600182019050919050565b60006133fd8261332b565b91506134088361332b565b92508261341857613417613452565b5b828206905092915050565b7f4e487b7100000000000000000000000000000000000000000000000000000000600052601160045260246000fd5b7f4e487b7100000000000000000000000000000000000000000000000000000000600052601260045260246000fd5b7f4e487b7100000000000000000000000000000000000000000000000000000000600052602260045260246000fd5b7f4e487b7100000000000000000000000000000000000000000000000000000000600052604160045260246000fd5b6000601f19601f8301169050919050565b6134f9816132c1565b811461350457600080fd5b50565b613510816132d3565b811461351b57600080fd5b50565b613527816132df565b811461353257600080fd5b50565b61353e8161332b565b811461354957600080fd5b5056fe416e204e465420772f20494420257320686173206265656e206d696e74656420746f202573a2646970667358221220338e364fd227b5aa72809f9075812834764f9581a400e8999a83bcf0b6d6ebb964736f6c63430008000033",
  "linkReferences": {},
  "deployedLinkReferences": {}
}